:020000040000FA
:10000000F0F0F0F0F0F0F0F0F0F0F0F0F0F0F0F0F0
:10001000F0F0F0F0F0F0F0F0F0F0F0F0F0F0F0F0E0
:10002000F0F0F0F0F0F0F0F0F0F0F0F0F0F0F0F0D0
:10003000F0F0F0F0F0F0F0F0F0F0F0F0F0F0F0F0C0
:10004000F0F0F0F0F0F0F0F0F0F0F0F0F0F0F0F0B0
:10005000F0F0F0F0F0F0F0F0F0F0F0F0F0F0F0F0A0
:10006000FFFFFFFFFFFFFFFFFFFFFFFFFFFFFFFFA0
:10007000FEFEFEFEFDFDFDFDFFFFFFFFFFFFFFFF9C
:10008000F0F0F0F0F0F0F0F0F0F0F0F0F0F0F0F070
:10009000F0F0F0F0F0F0F0F0F0F0F0F0F0F0F0F060
:1000A000F0F0F0F0F0F0F0F0F0F0F0F0F0F0F0F050
:1000B000F0F0F0F0F0F0F0F0F0F0F0F0F0F0F0F040
:1000C000F0F0F0F0F0F0F0F0F0F0F0F0F0F0F0F030
:1000D000F0F0F0F0F0F0F0F0F0F0F0F0F0F0F0F020
:1000E000F0F0F0F0F0F0F0F0F0F0F0F0F0F0F0F010
:1000F000F0F0F0F0F0F0F0F0F0F0F0F0F0F0F0F000
:10010000FFFFFFFFFFFFFFFFFFFFFFFFFFFFFFFFFF
:10011000FFFFFFFFFFFFFFFFFFFFFFFFFFFFFFFFEF
:10012000FFFFFFFFFFFFFFFFFFFFFFFFFFFFFFFFDF
:10013000FFFFFFFFFFFFFFFFFFFFFFFFFFFFFFFFCF
:10014000FFFFFFFFFFFFFFFFFFFFFFFFFFFFFFFFBF
:10015000FFFFFFFFFFFFFFFFFFFFFFFFFFFFFFFFAF
:10016000FFFFFFFFFFFFFFFFFFFFFFFFFFFFFFFF9F
:10017000FFFFFFFFFFFFFFFFFFFFFFFFFFFFFFFF8F
:10018000FFFFFFFFFFFFFFFFFFFFFFFFFFFFFFFF7F
:10019000FFFFFFFFFFFFFFFFFFFFFFFFFFFFFFFF6F
:1001A000FFFFFFFFFFFFFFFFFFFFFFFFFFFFFFFF5F
:1001B000FFFFFFFFFFFFFFFFFFFFFFFFFFFFFFFF4F
:1001C000FFFFFFFFFFFFFFFFFFFFFFFFFFFFFFFF3F
:1001D000FFFFFFFFFFFFFFFFFFFFFFFFFFFFFFFF2F
:1001E000FFFFFFFFFFFFFFFFFFFFFFFFFFFFFFFF1F
:1001F000FFFFFFFFFFFFFFFFFFFFFFFFFFFFFFFF0F
:10020000F0F0F0F0F0F0F0F0F0F0F0F0F0F0F0F0EE
:10021000F0F0F0F0F0F0F0F0F0F0F0F0F0F0F0F0DE
:10022000F0F0F0F0F0F0F0F0F0F0F0F0F0F0F0F0CE
:10023000F0F0F0F0F0F0F0F0F0F0F0F0F0F0F0F0BE
:10024000F0F0F0F0F0F0F0F0F0F0F0F0F0F0F0F0AE
:10025000F0F0F0F0F0F0F0F0F0F0F0F0F0F0F0F09E
:10026000FFFFFFFFFFFFFFFFFFFFFFFFFFFFFFFF9E
:10027000FEFEFEFEFDFDFDFDFFFFFFFFFFFFFFFF9A
:10028000F0F0F0F0F0F0F0F0F0F0F0F0F0F0F0F06E
:10029000F0F0F0F0F0F0F0F0F0F0F0F0F0F0F0F05E
:1002A000F0F0F0F0F0F0F0F0F0F0F0F0F0F0F0F04E
:1002B000F0F0F0F0F0F0F0F0F0F0F0F0F0F0F0F03E
:1002C000F0F0F0F0F0F0F0F0F0F0F0F0F0F0F0F02E
:1002D000F0F0F0F0F0F0F0F0F0F0F0F0F0F0F0F01E
:1002E000F0F0F0F0F0F0F0F0F0F0F0F0F0F0F0F00E
:1002F000F0F0F0F0F0F0F0F0F0F0F0F0F0F0F0F0FE
:10030000FFFFFFFFFFFFFFFFFFFFFFFFFFFFFFFFFD
:10031000FFFFFFFFFFFFFFFFFFFFFFFFFFFFFFFFED
:10032000FFFFFFFFFFFFFFFFFFFFFFFFFFFFFFFFDD
:10033000FFFFFFFFFFFFFFFFFFFFFFFFFFFFFFFFCD
:10034000FFFFFFFFFFFFFFFFFFFFFFFFFFFFFFFFBD
:10035000FFFFFFFFFFFFFFFFFFFFFFFFFFFFFFFFAD
:10036000FFFFFFFFFFFFFFFFFFFFFFFFFFFFFFFF9D
:10037000FFFFFFFFFFFFFFFFFFFFFFFFFFFFFFFF8D
:10038000FFFFFFFFFFFFFFFFFFFFFFFFFFFFFFFF7D
:10039000FFFFFFFFFFFFFFFFFFFFFFFFFFFFFFFF6D
:1003A000FFFFFFFFFFFFFFFFFFFFFFFFFFFFFFFF5D
:1003B000FFFFFFFFFFFFFFFFFFFFFFFFFFFFFFFF4D
:1003C000FFFFFFFFFFFFFFFFFFFFFFFFFFFFFFFF3D
:1003D000FFFFFFFFFFFFFFFFFFFFFFFFFFFFFFFF2D
:1003E000FFFFFFFFFFFFFFFFFFFFFFFFFFFFFFFF1D
:1003F000FFFFFFFFFFFFFFFFFFFFFFFFFFFFFFFF0D
:10040000F0F0F0F0F0F0F0F0F0F0F0F0F0F0F0F0EC
:10041000F0F0F0F0F0F0F0F0F0F0F0F0F0F0F0F0DC
:10042000F0F0F0F0F0F0F0F0F0F0F0F0F0F0F0F0CC
:10043000F0F0F0F0F0F0F0F0F0F0F0F0F0F0F0F0BC
:10044000F0F0F0F0F0F0F0F0F0F0F0F0F0F0F0F0AC
:10045000F0F0F0F0F0F0F0F0F0F0F0F0F0F0F0F09C
:10046000FFFFFFFFFFFFFFFFFFFFFFFFFFFFFFFF9C
:10047000FEFEFEFEFDFDFDFDFFFFFFFFFFFFFFFF98
:10048000F0F0F0F0F0F0F0F0F0F0F0F0F0F0F0F06C
:10049000F0F0F0F0F0F0F0F0F0F0F0F0F0F0F0F05C
:1004A000F0F0F0F0F0F0F0F0F0F0F0F0F0F0F0F04C
:1004B000F0F0F0F0F0F0F0F0F0F0F0F0F0F0F0F03C
:1004C000F0F0F0F0F0F0F0F0F0F0F0F0F0F0F0F02C
:1004D000F0F0F0F0F0F0F0F0F0F0F0F0F0F0F0F01C
:1004E000F0F0F0F0F0F0F0F0F0F0F0F0F0F0F0F00C
:1004F000F0F0F0F0F0F0F0F0F0F0F0F0F0F0F0F0FC
:10050000FFFFFFFFFFFFFFFFFFFFFFFFFFFFFFFFFB
:10051000FFFFFFFFFFFFFFFFFFFFFFFFFFFFFFFFEB
:10052000FFFFFFFFFFFFFFFFFFFFFFFFFFFFFFFFDB
:10053000FFFFFFFFFFFFFFFFFFFFFFFFFFFFFFFFCB
:10054000FFFFFFFFFFFFFFFFFFFFFFFFFFFFFFFFBB
:10055000FFFFFFFFFFFFFFFFFFFFFFFFFFFFFFFFAB
:10056000FFFFFFFFFFFFFFFFFFFFFFFFFFFFFFFF9B
:10057000FFFFFFFFFFFFFFFFFFFFFFFFFFFFFFFF8B
:10058000FFFFFFFFFFFFFFFFFFFFFFFFFFFFFFFF7B
:10059000FFFFFFFFFFFFFFFFFFFFFFFFFFFFFFFF6B
:1005A000FFFFFFFFFFFFFFFFFFFFFFFFFFFFFFFF5B
:1005B000FFFFFFFFFFFFFFFFFFFFFFFFFFFFFFFF4B
:1005C000FFFFFFFFFFFFFFFFFFFFFFFFFFFFFFFF3B
:1005D000FFFFFFFFFFFFFFFFFFFFFFFFFFFFFFFF2B
:1005E000FFFFFFFFFFFFFFFFFFFFFFFFFFFFFFFF1B
:1005F000FFFFFFFFFFFFFFFFFFFFFFFFFFFFFFFF0B
:10060000F0F0F0F0F0F0F0F0F0F0F0F0F0F0F0F0EA
:10061000F0F0F0F0F0F0F0F0F0F0F0F0F0F0F0F0DA
:10062000F0F0F0F0F0F0F0F0F0F0F0F0F0F0F0F0CA
:10063000F0F0F0F0F0F0F0F0F0F0F0F0F0F0F0F0BA
:10064000F0F0F0F0F0F0F0F0F0F0F0F0F0F0F0F0AA
:10065000F0F0F0F0F0F0F0F0F0F0F0F0F0F0F0F09A
:10066000FFFFFFFFFFFFFFFFFFFFFFFFFFFFFFFF9A
:10067000FEFEFEFEFDFDFDFDFFFFFFFFFFFFFFFF96
:10068000F0F0F0F0F0F0F0F0F0F0F0F0F0F0F0F06A
:10069000F0F0F0F0F0F0F0F0F0F0F0F0F0F0F0F05A
:1006A000F0F0F0F0F0F0F0F0F0F0F0F0F0F0F0F04A
:1006B000F0F0F0F0F0F0F0F0F0F0F0F0F0F0F0F03A
:1006C000F0F0F0F0F0F0F0F0F0F0F0F0F0F0F0F02A
:1006D000F0F0F0F0F0F0F0F0F0F0F0F0F0F0F0F01A
:1006E000F0F0F0F0F0F0F0F0F0F0F0F0F0F0F0F00A
:1006F000F0F0F0F0F0F0F0F0F0F0F0F0F0F0F0F0FA
:10070000FFFFFFFFFFFFFFFFFFFFFFFFFFFFFFFFF9
:10071000FFFFFFFFFFFFFFFFFFFFFFFFFFFFFFFFE9
:10072000FFFFFFFFFFFFFFFFFFFFFFFFFFFFFFFFD9
:10073000FFFFFFFFFFFFFFFFFFFFFFFFFFFFFFFFC9
:10074000FFFFFFFFFFFFFFFFFFFFFFFFFFFFFFFFB9
:10075000FFFFFFFFFFFFFFFFFFFFFFFFFFFFFFFFA9
:10076000FFFFFFFFFFFFFFFFFFFFFFFFFFFFFFFF99
:10077000FFFFFFFFFFFFFFFFFFFFFFFFFFFFFFFF89
:10078000FFFFFFFFFFFFFFFFFFFFFFFFFFFFFFFF79
:10079000FFFFFFFFFFFFFFFFFFFFFFFFFFFFFFFF69
:1007A000FFFFFFFFFFFFFFFFFFFFFFFFFFFFFFFF59
:1007B000FFFFFFFFFFFFFFFFFFFFFFFFFFFFFFFF49
:1007C000FFFFFFFFFFFFFFFFFFFFFFFFFFFFFFFF39
:1007D000FFFFFFFFFFFFFFFFFFFFFFFFFFFFFFFF29
:1007E000FFFFFFFFFFFFFFFFFFFFFFFFFFFFFFFF19
:1007F000FFFFFFFFFFFFFFFFFFFFFFFFFFFFFFFF09
:00000001FF
