:020000040000FA
:10000000F0F0F0F0F0F0F0F0F0F0F0F0F0F0F0F0F0
:10001000F0F0F0F0F0F0F0F0F0F0F0F0F0F0F0F0E0
:10002000F0F0F0F0F0F0F0F0F0F0F0F0F0F0F0F0D0
:10003000F0F0F0F0F0F0F0F0F0F0F0F0F0F0F0F0C0
:10004000F0F0F0F0F0F0F0F0F0F0F0F0F0F0F0F0B0
:10005000F0F0F0F0F0F0F0F0F0F0F0F0F0F0F0F0A0
:10006000FEFEFEFEFDFDFDFDFBFBFBFBF7F7F7F7DC
:10007000FFFFFFFFFFFFFFFFFFFFFFFFFFFFFFFF90
:10008000FFFFFFFFF4F4FFFFF6F6FFFFFFFFFFFFA8
:10009000FFFFFFFFF0F0F0F0F0F0F0F0F0F0F0F024
:1000A000F0F0F0F0F0F0F0F0F0F0F0F0F0F0F0F050
:1000B000F0F0F0F0F0F0F0F0F0F0F0F0F0F0F0F040
:1000C000F0F0F0F0F0F0F0F0F0F0F0F0F0F0F0F030
:1000D000F0F0F0F0F0F0F0F0F0F0F0F0F0F0F0F020
:1000E000F0F0F0F0F0F0F0F0F0F0F0F0F0F0F0F010
:1000F000F0F0F0F0F0F0F0F0F0F0F0F0F0F0F0F000
:10010000FFFFFFFFFFFFFFFFFFFFFFFFFFFFFFFFFF
:10011000FFFFFFFFFFFFFFFFFFFFFFFFFFFFFFFFEF
:10012000FFFFFFFFFFFFFFFFFFFFFFFFFFFFFFFFDF
:10013000FFFFFFFFFFFFFFFFFFFFFFFFFFFFFFFFCF
:10014000FFFFFFFFFFFFFFFFFFFFFFFFFFFFFFFFBF
:10015000FFFFFFFFFFFFFFFFFFFFFFFFFFFFFFFFAF
:10016000FFFFFFFFFFFFFFFFFFFFFFFFFFFFFFFF9F
:10017000FFFFFFFFFFFFFFFFFFFFFFFFFFFFFFFF8F
:10018000FFFFFFFFFFFFFFFFFFFFFFFFFFFFFFFF7F
:10019000FFFFFFFFFFFFFFFFFFFFFFFFFFFFFFFF6F
:1001A000FFFFFFFFFFFFFFFFFFFFFFFFFFFFFFFF5F
:1001B000FFFFFFFFFFFFFFFFFFFFFFFFFFFFFFFF4F
:1001C000FFFFFFFFFFFFFFFFFFFFFFFFFFFFFFFF3F
:1001D000FFFFFFFFFFFFFFFFFFFFFFFFFFFFFFFF2F
:1001E000FFFFFFFFFFFFFFFFFFFFFFFFFFFFFFFF1F
:1001F000FFFFFFFFFFFFFFFFFFFFFFFFFFFFFFFF0F
:00000001FF
